:020000000130CD
:10003000113C11471162117D11A2013A900300E4B5
:10004000935124A370F9227860900306510A90031B
:100050001011F490031D11F4900329310D311C513E
:1000600012227864900333510A90033D11F49003F7
:100070004911F490035611F43134511222740C5189
:100080002474855124742F512F74885124742F5156
:100090002F74C55124743A512F74C85124743A51A5
:1000A0002F2231A931D831ED3194317F316A31536A
:1000B0000530E530B43CF17530000531E531B43C34
:1000C000E77531000532E532B40C0BE56AB4010C7A
:1000D0002401F56A01A2B40DCF7532010535E5356D
:1000E000B41EBF7535000534E534B40DB575340163
:1000F000053301A274C15124510A5143512F943048
:10010000F6085143512F9430F60851172274C1510B
:1001100024510A5143512F9430F56A22E56075F05D
:100120000AA42561F532E56275F00AA42563F5316C
:1001300075300022E56475F00AA42565F535E5669D
:1001400075F00AA42567F534E56875F00AA42569F9
:10015000F533227A0F758901758A01758C35D28C39
:05016000308DFDC28C92
:10016500C28DDAEF2274C95124E53075F00A844452
:1001750030512FE5F04430512F2274C65124E5311A
:1001850075F00A844430512FE5F04430512F227424
:10019500C35124E53275F00A844430512FE5F0440B
:1001A50030512F2274835124E53575F00A8444308B
:1001B500512FE5F04430512F74CC5124E56AB40138
:1001C500097441512F744D512F227450512F744D84
:1001D500512F2274865124E53475F00A8444305138
:1001E5002FE5F04430512F22748951247432512F58
:1001F5007430512FE53375F00A844430512FE5F002
:100205004430512F22E493512FA370F922740151E8
:10021500242274C051247A107420512FDAFA22F561
:1002250080C2A0D2A1513AC2A122F580D2A0D2A10A
:10023500513AC2A1227F067E96DEFEDFFA22759034
:10024500FF75B000E590540FB40FF612023AE59031
:10025500540FB40F0280F412023AE590540FB40F14
:100265000280E875B0FEE590540FB40F2175B0FD1E
:10027500E590540FB40F1C75B0FBE590540FB40F07
:0B0285001775B0F7E590540FB40F128E
:10029000020250900370800D9003748008900378E0
:0E02A000800390037C135003A380FAE49322A2
:10030000380F010680005365742074696D653A00EA
:10031000486F75722830307E3132293A004D696E4F
:100320002830307E3630293A00414D7E3120504D04
:100330007E320053657420646174653A00446179CB
:100340002830307E3330293A004D6F6E7468283083
:10035000307E31322900596561722830307E39395A
:10036000293A00202020202020202020202020208A
:100370003132332F3435362A3738392D2A30232B72
:00000001FF
